{
  "_format": "hh-sol-artifact-1",
  "contractName": "Market",
  "sourceName": "contracts/Market.sol",
  "abi": [
    {
      "inputs": [
        {
          "internalType": "address",
          "name": "daoToken",
          "type": "address"
        },
        {
          "internalType": "address",
          "name": "ercToken",
          "type": "address"
        }
      ],
      "stateMutability": "nonpayable",
      "type": "constructor"
    },
    {
      "anonymous": false,
      "inputs": [
        {
          "indexed": false,
          "internalType": "address",
          "name": "to",
          "type": "address"
        },
        {
          "indexed": false,
          "internalType": "uint256",
          "name": "amount",
          "type": "uint256"
        }
      ],
      "name": "Buy",
      "type": "event"
    },
    {
      "inputs": [
        {
          "internalType": "uint256",
          "name": "amount",
          "type": "uint256"
        }
      ],
      "name": "swapERCForDao",
      "outputs": [],
      "stateMutability": "nonpayable",
      "type": "function"
    }
  ],
  "bytecode": "0x608060405234801561001057600080fd5b50604051610830380380610830833981810160405281019061003291906101fd565b600073ffffffffffffffffffffffffffffffffffffffff168273ffffffffffffffffffffffffffffffffffffffff1614156100a2576040517f08c379a00000000000000000000000000000000000000000000000000000000081526004016100999061029a565b60405180910390fd5b600073ffffffffffffffffffffffffffffffffffffffff168173ffffffffffffffffffffffffffffffffffffffff161415610112576040517f08c379a00000000000000000000000000000000000000000000000000000000081526004016101099061029a565b60405180910390fd5b816000806101000a81548173ffffffffffffffffffffffffffffffffffffffff021916908373ffffffffffffffffffffffffffffffffffffffff16021790555080600160006101000a81548173ffffffffffffffffffffffffffffffffffffffff021916908373ffffffffffffffffffffffffffffffffffffffff16021790555050506102ba565b600080fd5b600073ffffffffffffffffffffffffffffffffffffffff82169050919050565b60006101ca8261019f565b9050919050565b6101da816101bf565b81146101e557600080fd5b50565b6000815190506101f7816101d1565b92915050565b600080604083850312156102145761021361019a565b5b6000610222858286016101e8565b9250506020610233858286016101e8565b9150509250929050565b600082825260208201905092915050565b7f496e76616c696420746f6b656e20616464726573730000000000000000000000600082015250565b600061028460158361023d565b915061028f8261024e565b602082019050919050565b600060208201905081810360008301526102b381610277565b9050919050565b610567806102c96000396000f3fe608060405234801561001057600080fd5b506004361061002b5760003560e01c8063d9b56a9414610030575b600080fd5b61004a600480360381019061004591906102ef565b61004c565b005b80600160009054906101000a900473ffffffffffffffffffffffffffffffffffffffff1673ffffffffffffffffffffffffffffffffffffffff166370a08231336040518263ffffffff1660e01b81526004016100a8919061035d565b60206040518083038186803b1580156100c057600080fd5b505afa1580156100d4573d6000803e3d6000fd5b505050506040513d601f19601f820116820180604052508101906100f8919061038d565b1015610139576040517f08c379a00000000000000000000000000000000000000000000000000000000081526004016101309061043d565b60405180910390fd5b600160009054906101000a900473ffffffffffffffffffffffffffffffffffffffff1673ffffffffffffffffffffffffffffffffffffffff166323b872dd3330846040518463ffffffff1660e01b81526004016101989392919061046c565b602060405180830381600087803b1580156101b257600080fd5b505af11580156101c6573d6000803e3d6000fd5b505050506040513d601f19601f820116820180604052508101906101ea91906104db565b5060008054906101000a900473ffffffffffffffffffffffffffffffffffffffff1673ffffffffffffffffffffffffffffffffffffffff166340c10f1933836040518363ffffffff1660e01b8152600401610246929190610508565b600060405180830381600087803b15801561026057600080fd5b505af1158015610274573d6000803e3d6000fd5b505050507fe3d4187f6ca4248660cc0ac8b8056515bac4a8132be2eca31d6d0cc170722a7e33826040516102a9929190610508565b60405180910390a150565b600080fd5b6000819050919050565b6102cc816102b9565b81146102d757600080fd5b50565b6000813590506102e9816102c3565b92915050565b600060208284031215610305576103046102b4565b5b6000610313848285016102da565b91505092915050565b600073ffffffffffffffffffffffffffffffffffffffff82169050919050565b60006103478261031c565b9050919050565b6103578161033c565b82525050565b6000602082019050610372600083018461034e565b92915050565b600081519050610387816102c3565b92915050565b6000602082840312156103a3576103a26102b4565b5b60006103b184828501610378565b91505092915050565b600082825260208201905092915050565b7f427579657220646f65736e2774206861766520656e6f75676820737461626c6560008201527f636f696e00000000000000000000000000000000000000000000000000000000602082015250565b60006104276024836103ba565b9150610432826103cb565b604082019050919050565b600060208201905081810360008301526104568161041a565b9050919050565b610466816102b9565b82525050565b6000606082019050610481600083018661034e565b61048e602083018561034e565b61049b604083018461045d565b949350505050565b60008115159050919050565b6104b8816104a3565b81146104c357600080fd5b50565b6000815190506104d5816104af565b92915050565b6000602082840312156104f1576104f06102b4565b5b60006104ff848285016104c6565b91505092915050565b600060408201905061051d600083018561034e565b61052a602083018461045d565b939250505056fea2646970667358221220505f6af74ec769af2efa7c747cae08d9926c7642428c0aad554ce716ebb78f3764736f6c63430008090033",
  "linkReferences": {},
  "deployedLinkReferences": {}
}