{
  "_format": "hh-sol-artifact-1",
  "contractName": "DaiMock",
  "sourceName": "contracts/DaiMock.sol",
  "abi": [
    {
      "inputs": [],
      "stateMutability": "nonpayable",
      "type": "constructor"
    },
    {
      "anonymous": false,
      "inputs": [
        {
          "indexed": true,
          "internalType": "address",
          "name": "owner",
          "type": "address"
        },
        {
          "indexed": true,
          "internalType": "address",
          "name": "spender",
          "type": "address"
        },
        {
          "indexed": false,
          "internalType": "uint256",
          "name": "value",
          "type": "uint256"
        }
      ],
      "name": "Approval",
      "type": "event"
    },
    {
      "anonymous": false,
      "inputs": [
        {
          "indexed": true,
          "internalType": "address",
          "name": "from",
          "type": "address"
        },
        {
          "indexed": true,
          "internalType": "address",
          "name": "to",
          "type": "address"
        },
        {
          "indexed": false,
          "internalType": "uint256",
          "name": "value",
          "type": "uint256"
        }
      ],
      "name": "Transfer",
      "type": "event"
    },
    {
      "inputs": [
        {
          "internalType": "address",
          "name": "owner",
          "type": "address"
        },
        {
          "internalType": "address",
          "name": "spender",
          "type": "address"
        }
      ],
      "name": "allowance",
      "outputs": [
        {
          "internalType": "uint256",
          "name": "",
          "type": "uint256"
        }
      ],
      "stateMutability": "view",
      "type": "function"
    },
    {
      "inputs": [
        {
          "internalType": "address",
          "name": "spender",
          "type": "address"
        },
        {
          "internalType": "uint256",
          "name": "amount",
          "type": "uint256"
        }
      ],
      "name": "approve",
      "outputs": [
        {
          "internalType": "bool",
          "name": "",
          "type": "bool"
        }
      ],
      "stateMutability": "nonpayable",
      "type": "function"
    },
    {
      "inputs": [
        {
          "internalType": "address",
          "name": "account",
          "type": "address"
        }
      ],
      "name": "balanceOf",
      "outputs": [
        {
          "internalType": "uint256",
          "name": "",
          "type": "uint256"
        }
      ],
      "stateMutability": "view",
      "type": "function"
    },
    {
      "inputs": [],
      "name": "decimals",
      "outputs": [
        {
          "internalType": "uint8",
          "name": "",
          "type": "uint8"
        }
      ],
      "stateMutability": "view",
      "type": "function"
    },
    {
      "inputs": [
        {
          "internalType": "address",
          "name": "spender",
          "type": "address"
        },
        {
          "internalType": "uint256",
          "name": "subtractedValue",
          "type": "uint256"
        }
      ],
      "name": "decreaseAllowance",
      "outputs": [
        {
          "internalType": "bool",
          "name": "",
          "type": "bool"
        }
      ],
      "stateMutability": "nonpayable",
      "type": "function"
    },
    {
      "inputs": [
        {
          "internalType": "address",
          "name": "to",
          "type": "address"
        },
        {
          "internalType": "uint256",
          "name": "amount",
          "type": "uint256"
        }
      ],
      "name": "faucet",
      "outputs": [],
      "stateMutability": "nonpayable",
      "type": "function"
    },
    {
      "inputs": [
        {
          "internalType": "address",
          "name": "spender",
          "type": "address"
        },
        {
          "internalType": "uint256",
          "name": "addedValue",
          "type": "uint256"
        }
      ],
      "name": "increaseAllowance",
      "outputs": [
        {
          "internalType": "bool",
          "name": "",
          "type": "bool"
        }
      ],
      "stateMutability": "nonpayable",
      "type": "function"
    },
    {
      "inputs": [],
      "name": "name",
      "outputs": [
        {
          "internalType": "string",
          "name": "",
          "type": "string"
        }
      ],
      "stateMutability": "view",
      "type": "function"
    },
    {
      "inputs": [],
      "name": "symbol",
      "outputs": [
        {
          "internalType": "string",
          "name": "",
          "type": "string"
        }
      ],
      "stateMutability": "view",
      "type": "function"
    },
    {
      "inputs": [],
      "name": "totalSupply",
      "outputs": [
        {
          "internalType": "uint256",
          "name": "",
          "type": "uint256"
        }
      ],
      "stateMutability": "view",
      "type": "function"
    },
    {
      "inputs": [
        {
          "internalType": "address",
          "name": "recipient",
          "type": "address"
        },
        {
          "internalType": "uint256",
          "name": "amount",
          "type": "uint256"
        }
      ],
      "name": "transfer",
      "outputs": [
        {
          "internalType": "bool",
          "name": "",
          "type": "bool"
        }
      ],
      "stateMutability": "nonpayable",
      "type": "function"
    },
    {
      "inputs": [
        {
          "internalType": "address",
          "name": "sender",
          "type": "address"
        },
        {
          "internalType": "address",
          "name": "recipient",
          "type": "address"
        },
        {
          "internalType": "uint256",
          "name": "amount",
          "type": "uint256"
        }
      ],
      "name": "transferFrom",
      "outputs": [
        {
          "internalType": "bool",
          "name": "",
          "type": "bool"
        }
      ],
      "stateMutability": "nonpayable",
      "type": "function"
    }
  ],
  "bytecode": "0x60806040523480156200001157600080fd5b506040518060400160405280600e81526020017f44616920537461626c65636f696e0000000000000000000000000000000000008152506040518060400160405280600381526020017f4441490000000000000000000000000000000000000000000000000000000000815250816003908051906020019062000096929190620000b8565b508060049080519060200190620000af929190620000b8565b505050620001cd565b828054620000c69062000197565b90600052602060002090601f016020900481019282620000ea576000855562000136565b82601f106200010557805160ff191683800117855562000136565b8280016001018555821562000136579182015b828111156200013557825182559160200191906001019062000118565b5b50905062000145919062000149565b5090565b5b80821115620001645760008160009055506001016200014a565b5090565b7f4e487b7100000000000000000000000000000000000000000000000000000000600052602260045260246000fd5b60006002820490506001821680620001b057607f821691505b60208210811415620001c757620001c662000168565b5b50919050565b6115ab80620001dd6000396000f3fe608060405234801561001057600080fd5b50600436106100b45760003560e01c806370a082311161007157806370a08231146101a35780637b56c2b2146101d357806395d89b41146101ef578063a457c2d71461020d578063a9059cbb1461023d578063dd62ed3e1461026d576100b4565b806306fdde03146100b9578063095ea7b3146100d757806318160ddd1461010757806323b872dd14610125578063313ce567146101555780633950935114610173575b600080fd5b6100c161029d565b6040516100ce9190610dd3565b60405180910390f35b6100f160048036038101906100ec9190610e8e565b61032f565b6040516100fe9190610ee9565b60405180910390f35b61010f61034d565b60405161011c9190610f13565b60405180910390f35b61013f600480360381019061013a9190610f2e565b610357565b60405161014c9190610ee9565b60405180910390f35b61015d61044f565b60405161016a9190610f9d565b60405180910390f35b61018d60048036038101906101889190610e8e565b610458565b60405161019a9190610ee9565b60405180910390f35b6101bd60048036038101906101b89190610fb8565b610504565b6040516101ca9190610f13565b60405180910390f35b6101ed60048036038101906101e89190610e8e565b61054c565b005b6101f761055a565b6040516102049190610dd3565b60405180910390f35b61022760048036038101906102229190610e8e565b6105ec565b6040516102349190610ee9565b60405180910390f35b61025760048036038101906102529190610e8e565b6106d7565b6040516102649190610ee9565b60405180910390f35b61028760048036038101906102829190610fe5565b6106f5565b6040516102949190610f13565b60405180910390f35b6060600380546102ac90611054565b80601f01602080910402602001604051908101604052809291908181526020018280546102d890611054565b80156103255780601f106102fa57610100808354040283529160200191610325565b820191906000526020600020905b81548152906001019060200180831161030857829003601f168201915b5050505050905090565b600061034361033c61077c565b8484610784565b6001905092915050565b6000600254905090565b600061036484848461094f565b6000600160008673ffffffffffffffffffffffffffffffffffffffff1673ffffffffffffffffffffffffffffffffffffffff16815260200190815260200160002060006103af61077c565b73ffffffffffffffffffffffffffffffffffffffff1673ffffffffffffffffffffffffffffffffffffffff1681526020019081526020016000205490508281101561042f576040517f08c379a0000000000000000000000000000000000000000000000000000000008152600401610426906110f8565b60405180910390fd5b6104438561043b61077c565b858403610784565b60019150509392505050565b60006012905090565b60006104fa61046561077c565b84846001600061047361077c565b73ffffffffffffffffffffffffffffffffffffffff1673ffffffffffffffffffffffffffffffffffffffff16815260200190815260200160002060008873ffffffffffffffffffffffffffffffffffffffff1673ffffffffffffffffffffffffffffffffffffffff168152602001908152602001600020546104f59190611147565b610784565b6001905092915050565b60008060008373ffffffffffffffffffffffffffffffffffffffff1673ffffffffffffffffffffffffffffffffffffffff168152602001908152602001600020549050919050565b6105568282610bd0565b5050565b60606004805461056990611054565b80601f016020809104026020016040519081016040528092919081815260200182805461059590611054565b80156105e25780601f106105b7576101008083540402835291602001916105e2565b820191906000526020600020905b8154815290600101906020018083116105c557829003601f168201915b5050505050905090565b600080600160006105fb61077c565b73ffffffffffffffffffffffffffffffffffffffff1673ffffffffffffffffffffffffffffffffffffffff16815260200190815260200160002060008573ffffffffffffffffffffffffffffffffffffffff1673ffffffffffffffffffffffffffffffffffffffff168152602001908152602001600020549050828110156106b8576040517f08c379a00000000000000000000000000000000000000000000000000000000081526004016106af9061120f565b60405180910390fd5b6106cc6106c361077c565b85858403610784565b600191505092915050565b60006106eb6106e461077c565b848461094f565b6001905092915050565b6000600160008473ffffffffffffffffffffffffffffffffffffffff1673ffffffffffffffffffffffffffffffffffffffff16815260200190815260200160002060008373ffffffffffffffffffffffffffffffffffffffff1673ffffffffffffffffffffffffffffffffffffffff16815260200190815260200160002054905092915050565b600033905090565b600073ffffffffffffffffffffffffffffffffffffffff168373ffffffffffffffffffffffffffffffffffffffff1614156107f4576040517f08c379a00000000000000000000000000000000000000000000000000000000081526004016107eb906112a1565b60405180910390fd5b600073ffffffffffffffffffffffffffffffffffffffff168273ffffffffffffffffffffffffffffffffffffffff161415610864576040517f08c379a000000000000000000000000000000000000000000000000000000000815260040161085b90611333565b60405180910390fd5b80600160008573ffffffffffffffffffffffffffffffffffffffff1673ffffffffffffffffffffffffffffffffffffffff16815260200190815260200160002060008473ffffffffffffffffffffffffffffffffffffffff1673ffffffffffffffffffffffffffffffffffffffff168152602001908152602001600020819055508173ffffffffffffffffffffffffffffffffffffffff168373ffffffffffffffffffffffffffffffffffffffff167f8c5be1e5ebec7d5bd14f71427d1e84f3dd0314c0f7b2291e5b200ac8c7c3b925836040516109429190610f13565b60405180910390a3505050565b600073ffffffffffffffffffffffffffffffffffffffff168373ffffffffffffffffffffffffffffffffffffffff1614156109bf576040517f08c379a00000000000000000000000000000000000000000000000000000000081526004016109b6906113c5565b60405180910390fd5b600073ffffffffffffffffffffffffffffffffffffffff168273ffffffffffffffffffffffffffffffffffffffff161415610a2f576040517f08c379a0000000000000000000000000000000000000000000000000000000008152600401610a2690611457565b60405180910390fd5b610a3a838383610d30565b60008060008573ffffffffffffffffffffffffffffffffffffffff1673ffffffffffffffffffffffffffffffffffffffff16815260200190815260200160002054905081811015610ac0576040517f08c379a0000000000000000000000000000000000000000000000000000000008152600401610ab7906114e9565b60405180910390fd5b8181036000808673ffffffffffffffffffffffffffffffffffffffff1673ffffffffffffffffffffffffffffffffffffffff16815260200190815260200160002081905550816000808573ffffffffffffffffffffffffffffffffffffffff1673ffffffffffffffffffffffffffffffffffffffff1681526020019081526020016000206000828254610b539190611147565b925050819055508273ffffffffffffffffffffffffffffffffffffffff168473ffffffffffffffffffffffffffffffffffffffff167fddf252ad1be2c89b69c2b068fc378daa952ba7f163c4a11628f55a4df523b3ef84604051610bb79190610f13565b60405180910390a3610bca848484610d35565b50505050565b600073ffffffffffffffffffffffffffffffffffffffff168273ffffffffffffffffffffffffffffffffffffffff161415610c40576040517f08c379a0000000000000000000000000000000000000000000000000000000008152600401610c3790611555565b60405180910390fd5b610c4c60008383610d30565b8060026000828254610c5e9190611147565b92505081905550806000808473ffffffffffffffffffffffffffffffffffffffff1673ffffffffffffffffffffffffffffffffffffffff1681526020019081526020016000206000828254610cb39190611147565b925050819055508173ffffffffffffffffffffffffffffffffffffffff16600073ffffffffffffffffffffffffffffffffffffffff167fddf252ad1be2c89b69c2b068fc378daa952ba7f163c4a11628f55a4df523b3ef83604051610d189190610f13565b60405180910390a3610d2c60008383610d35565b5050565b505050565b505050565b600081519050919050565b600082825260208201905092915050565b60005b83811015610d74578082015181840152602081019050610d59565b83811115610d83576000848401525b50505050565b6000601f19601f8301169050919050565b6000610da582610d3a565b610daf8185610d45565b9350610dbf818560208601610d56565b610dc881610d89565b840191505092915050565b60006020820190508181036000830152610ded8184610d9a565b905092915050565b600080fd5b600073ffffffffffffffffffffffffffffffffffffffff82169050919050565b6000610e2582610dfa565b9050919050565b610e3581610e1a565b8114610e4057600080fd5b50565b600081359050610e5281610e2c565b92915050565b6000819050919050565b610e6b81610e58565b8114610e7657600080fd5b50565b600081359050610e8881610e62565b92915050565b60008060408385031215610ea557610ea4610df5565b5b6000610eb385828601610e43565b9250506020610ec485828601610e79565b9150509250929050565b60008115159050919050565b610ee381610ece565b82525050565b6000602082019050610efe6000830184610eda565b92915050565b610f0d81610e58565b82525050565b6000602082019050610f286000830184610f04565b92915050565b600080600060608486031215610f4757610f46610df5565b5b6000610f5586828701610e43565b9350506020610f6686828701610e43565b9250506040610f7786828701610e79565b9150509250925092565b600060ff82169050919050565b610f9781610f81565b82525050565b6000602082019050610fb26000830184610f8e565b92915050565b600060208284031215610fce57610fcd610df5565b5b6000610fdc84828501610e43565b91505092915050565b60008060408385031215610ffc57610ffb610df5565b5b600061100a85828601610e43565b925050602061101b85828601610e43565b9150509250929050565b7f4e487b7100000000000000000000000000000000000000000000000000000000600052602260045260246000fd5b6000600282049050600182168061106c57607f821691505b602082108114156110805761107f611025565b5b50919050565b7f45524332303a207472616e7366657220616d6f756e742065786365656473206160008201527f6c6c6f77616e6365000000000000000000000000000000000000000000000000602082015250565b60006110e2602883610d45565b91506110ed82611086565b604082019050919050565b60006020820190508181036000830152611111816110d5565b9050919050565b7f4e487b7100000000000000000000000000000000000000000000000000000000600052601160045260246000fd5b600061115282610e58565b915061115d83610e58565b9250827fffffffffffffffffffffffffffffffffffffffffffffffffffffffffffffffff0382111561119257611191611118565b5b828201905092915050565b7f45524332303a2064656372656173656420616c6c6f77616e63652062656c6f7760008201527f207a65726f000000000000000000000000000000000000000000000000000000602082015250565b60006111f9602583610d45565b91506112048261119d565b604082019050919050565b60006020820190508181036000830152611228816111ec565b9050919050565b7f45524332303a20617070726f76652066726f6d20746865207a65726f2061646460008201527f7265737300000000000000000000000000000000000000000000000000000000602082015250565b600061128b602483610d45565b91506112968261122f565b604082019050919050565b600060208201905081810360008301526112ba8161127e565b9050919050565b7f45524332303a20617070726f766520746f20746865207a65726f20616464726560008201527f7373000000000000000000000000000000000000000000000000000000000000602082015250565b600061131d602283610d45565b9150611328826112c1565b604082019050919050565b6000602082019050818103600083015261134c81611310565b9050919050565b7f45524332303a207472616e736665722066726f6d20746865207a65726f20616460008201527f6472657373000000000000000000000000000000000000000000000000000000602082015250565b60006113af602583610d45565b91506113ba82611353565b604082019050919050565b600060208201905081810360008301526113de816113a2565b9050919050565b7f45524332303a207472616e7366657220746f20746865207a65726f206164647260008201527f6573730000000000000000000000000000000000000000000000000000000000602082015250565b6000611441602383610d45565b915061144c826113e5565b604082019050919050565b6000602082019050818103600083015261147081611434565b9050919050565b7f45524332303a207472616e7366657220616d6f756e742065786365656473206260008201527f616c616e63650000000000000000000000000000000000000000000000000000602082015250565b60006114d3602683610d45565b91506114de82611477565b604082019050919050565b60006020820190508181036000830152611502816114c6565b9050919050565b7f45524332303a206d696e7420746f20746865207a65726f206164647265737300600082015250565b600061153f601f83610d45565b915061154a82611509565b602082019050919050565b6000602082019050818103600083015261156e81611532565b905091905056fea264697066735822122003a4bb1a19e31f8b0a46d0a2d1e44c5968f1677921e5c993a2cb27f4b3edaa2e64736f6c63430008090033",
  "linkReferences": {},
  "deployedLinkReferences": {}
}