{
  "_format": "hh-sol-artifact-1",
  "contractName": "DaoToken",
  "sourceName": "contracts/DaoToken.sol",
  "abi": [
    {
      "inputs": [],
      "stateMutability": "nonpayable",
      "type": "constructor"
    },
    {
      "anonymous": false,
      "inputs": [
        {
          "indexed": true,
          "internalType": "address",
          "name": "owner",
          "type": "address"
        },
        {
          "indexed": true,
          "internalType": "address",
          "name": "spender",
          "type": "address"
        },
        {
          "indexed": false,
          "internalType": "uint256",
          "name": "value",
          "type": "uint256"
        }
      ],
      "name": "Approval",
      "type": "event"
    },
    {
      "anonymous": false,
      "inputs": [
        {
          "indexed": false,
          "internalType": "address",
          "name": "to",
          "type": "address"
        },
        {
          "indexed": false,
          "internalType": "uint256",
          "name": "amount",
          "type": "uint256"
        }
      ],
      "name": "Mint",
      "type": "event"
    },
    {
      "anonymous": false,
      "inputs": [
        {
          "indexed": false,
          "internalType": "address",
          "name": "to",
          "type": "address"
        },
        {
          "indexed": false,
          "internalType": "uint256",
          "name": "amount",
          "type": "uint256"
        }
      ],
      "name": "Reward",
      "type": "event"
    },
    {
      "anonymous": false,
      "inputs": [
        {
          "indexed": true,
          "internalType": "bytes32",
          "name": "role",
          "type": "bytes32"
        },
        {
          "indexed": true,
          "internalType": "bytes32",
          "name": "previousAdminRole",
          "type": "bytes32"
        },
        {
          "indexed": true,
          "internalType": "bytes32",
          "name": "newAdminRole",
          "type": "bytes32"
        }
      ],
      "name": "RoleAdminChanged",
      "type": "event"
    },
    {
      "anonymous": false,
      "inputs": [
        {
          "indexed": true,
          "internalType": "bytes32",
          "name": "role",
          "type": "bytes32"
        },
        {
          "indexed": true,
          "internalType": "address",
          "name": "account",
          "type": "address"
        },
        {
          "indexed": true,
          "internalType": "address",
          "name": "sender",
          "type": "address"
        }
      ],
      "name": "RoleGranted",
      "type": "event"
    },
    {
      "anonymous": false,
      "inputs": [
        {
          "indexed": true,
          "internalType": "bytes32",
          "name": "role",
          "type": "bytes32"
        },
        {
          "indexed": true,
          "internalType": "address",
          "name": "account",
          "type": "address"
        },
        {
          "indexed": true,
          "internalType": "address",
          "name": "sender",
          "type": "address"
        }
      ],
      "name": "RoleRevoked",
      "type": "event"
    },
    {
      "anonymous": false,
      "inputs": [
        {
          "indexed": true,
          "internalType": "address",
          "name": "from",
          "type": "address"
        },
        {
          "indexed": true,
          "internalType": "address",
          "name": "to",
          "type": "address"
        },
        {
          "indexed": false,
          "internalType": "uint256",
          "name": "value",
          "type": "uint256"
        }
      ],
      "name": "Transfer",
      "type": "event"
    },
    {
      "inputs": [],
      "name": "DEFAULT_ADMIN_ROLE",
      "outputs": [
        {
          "internalType": "bytes32",
          "name": "",
          "type": "bytes32"
        }
      ],
      "stateMutability": "view",
      "type": "function"
    },
    {
      "inputs": [],
      "name": "MARKET_ROLE",
      "outputs": [
        {
          "internalType": "bytes32",
          "name": "",
          "type": "bytes32"
        }
      ],
      "stateMutability": "view",
      "type": "function"
    },
    {
      "inputs": [],
      "name": "OPERATOR_ROLE",
      "outputs": [
        {
          "internalType": "bytes32",
          "name": "",
          "type": "bytes32"
        }
      ],
      "stateMutability": "view",
      "type": "function"
    },
    {
      "inputs": [
        {
          "internalType": "address",
          "name": "owner",
          "type": "address"
        },
        {
          "internalType": "address",
          "name": "spender",
          "type": "address"
        }
      ],
      "name": "allowance",
      "outputs": [
        {
          "internalType": "uint256",
          "name": "",
          "type": "uint256"
        }
      ],
      "stateMutability": "view",
      "type": "function"
    },
    {
      "inputs": [
        {
          "internalType": "address",
          "name": "spender",
          "type": "address"
        },
        {
          "internalType": "uint256",
          "name": "amount",
          "type": "uint256"
        }
      ],
      "name": "approve",
      "outputs": [
        {
          "internalType": "bool",
          "name": "",
          "type": "bool"
        }
      ],
      "stateMutability": "nonpayable",
      "type": "function"
    },
    {
      "inputs": [
        {
          "internalType": "address",
          "name": "account",
          "type": "address"
        }
      ],
      "name": "balanceOf",
      "outputs": [
        {
          "internalType": "uint256",
          "name": "",
          "type": "uint256"
        }
      ],
      "stateMutability": "view",
      "type": "function"
    },
    {
      "inputs": [
        {
          "internalType": "uint256",
          "name": "amount",
          "type": "uint256"
        }
      ],
      "name": "burn",
      "outputs": [],
      "stateMutability": "nonpayable",
      "type": "function"
    },
    {
      "inputs": [
        {
          "internalType": "address",
          "name": "account",
          "type": "address"
        },
        {
          "internalType": "uint256",
          "name": "amount",
          "type": "uint256"
        }
      ],
      "name": "burnFrom",
      "outputs": [],
      "stateMutability": "nonpayable",
      "type": "function"
    },
    {
      "inputs": [],
      "name": "burnedSupply",
      "outputs": [
        {
          "internalType": "uint256",
          "name": "",
          "type": "uint256"
        }
      ],
      "stateMutability": "view",
      "type": "function"
    },
    {
      "inputs": [],
      "name": "circulatingSupply",
      "outputs": [
        {
          "internalType": "uint256",
          "name": "",
          "type": "uint256"
        }
      ],
      "stateMutability": "view",
      "type": "function"
    },
    {
      "inputs": [
        {
          "internalType": "address",
          "name": "market",
          "type": "address"
        }
      ],
      "name": "connectToMarket",
      "outputs": [],
      "stateMutability": "nonpayable",
      "type": "function"
    },
    {
      "inputs": [],
      "name": "connectedMarket",
      "outputs": [
        {
          "internalType": "address",
          "name": "",
          "type": "address"
        }
      ],
      "stateMutability": "view",
      "type": "function"
    },
    {
      "inputs": [],
      "name": "decimals",
      "outputs": [
        {
          "internalType": "uint8",
          "name": "",
          "type": "uint8"
        }
      ],
      "stateMutability": "view",
      "type": "function"
    },
    {
      "inputs": [
        {
          "internalType": "address",
          "name": "spender",
          "type": "address"
        },
        {
          "internalType": "uint256",
          "name": "subtractedValue",
          "type": "uint256"
        }
      ],
      "name": "decreaseAllowance",
      "outputs": [
        {
          "internalType": "bool",
          "name": "",
          "type": "bool"
        }
      ],
      "stateMutability": "nonpayable",
      "type": "function"
    },
    {
      "inputs": [
        {
          "internalType": "address",
          "name": "to",
          "type": "address"
        },
        {
          "internalType": "uint256",
          "name": "amount",
          "type": "uint256"
        }
      ],
      "name": "faucet",
      "outputs": [],
      "stateMutability": "nonpayable",
      "type": "function"
    },
    {
      "inputs": [
        {
          "internalType": "bytes32",
          "name": "role",
          "type": "bytes32"
        }
      ],
      "name": "getRoleAdmin",
      "outputs": [
        {
          "internalType": "bytes32",
          "name": "",
          "type": "bytes32"
        }
      ],
      "stateMutability": "view",
      "type": "function"
    },
    {
      "inputs": [
        {
          "internalType": "bytes32",
          "name": "role",
          "type": "bytes32"
        },
        {
          "internalType": "address",
          "name": "account",
          "type": "address"
        }
      ],
      "name": "grantRole",
      "outputs": [],
      "stateMutability": "nonpayable",
      "type": "function"
    },
    {
      "inputs": [
        {
          "internalType": "bytes32",
          "name": "role",
          "type": "bytes32"
        },
        {
          "internalType": "address",
          "name": "account",
          "type": "address"
        }
      ],
      "name": "hasRole",
      "outputs": [
        {
          "internalType": "bool",
          "name": "",
          "type": "bool"
        }
      ],
      "stateMutability": "view",
      "type": "function"
    },
    {
      "inputs": [
        {
          "internalType": "address",
          "name": "spender",
          "type": "address"
        },
        {
          "internalType": "uint256",
          "name": "addedValue",
          "type": "uint256"
        }
      ],
      "name": "increaseAllowance",
      "outputs": [
        {
          "internalType": "bool",
          "name": "",
          "type": "bool"
        }
      ],
      "stateMutability": "nonpayable",
      "type": "function"
    },
    {
      "inputs": [
        {
          "internalType": "address",
          "name": "to",
          "type": "address"
        },
        {
          "internalType": "uint256",
          "name": "amount",
          "type": "uint256"
        }
      ],
      "name": "mint",
      "outputs": [],
      "stateMutability": "nonpayable",
      "type": "function"
    },
    {
      "inputs": [],
      "name": "name",
      "outputs": [
        {
          "internalType": "string",
          "name": "",
          "type": "string"
        }
      ],
      "stateMutability": "view",
      "type": "function"
    },
    {
      "inputs": [
        {
          "internalType": "bytes32",
          "name": "role",
          "type": "bytes32"
        },
        {
          "internalType": "address",
          "name": "account",
          "type": "address"
        }
      ],
      "name": "renounceRole",
      "outputs": [],
      "stateMutability": "nonpayable",
      "type": "function"
    },
    {
      "inputs": [
        {
          "internalType": "bytes32",
          "name": "role",
          "type": "bytes32"
        },
        {
          "internalType": "address",
          "name": "account",
          "type": "address"
        }
      ],
      "name": "revokeRole",
      "outputs": [],
      "stateMutability": "nonpayable",
      "type": "function"
    },
    {
      "inputs": [
        {
          "internalType": "address",
          "name": "to",
          "type": "address"
        },
        {
          "internalType": "uint256",
          "name": "amount",
          "type": "uint256"
        }
      ],
      "name": "reward",
      "outputs": [],
      "stateMutability": "nonpayable",
      "type": "function"
    },
    {
      "inputs": [
        {
          "internalType": "bytes4",
          "name": "interfaceId",
          "type": "bytes4"
        }
      ],
      "name": "supportsInterface",
      "outputs": [
        {
          "internalType": "bool",
          "name": "",
          "type": "bool"
        }
      ],
      "stateMutability": "view",
      "type": "function"
    },
    {
      "inputs": [],
      "name": "symbol",
      "outputs": [
        {
          "internalType": "string",
          "name": "",
          "type": "string"
        }
      ],
      "stateMutability": "view",
      "type": "function"
    },
    {
      "inputs": [],
      "name": "totalSupply",
      "outputs": [
        {
          "internalType": "uint256",
          "name": "",
          "type": "uint256"
        }
      ],
      "stateMutability": "view",
      "type": "function"
    },
    {
      "inputs": [
        {
          "internalType": "address",
          "name": "recipient",
          "type": "address"
        },
        {
          "internalType": "uint256",
          "name": "amount",
          "type": "uint256"
        }
      ],
      "name": "transfer",
      "outputs": [
        {
          "internalType": "bool",
          "name": "",
          "type": "bool"
        }
      ],
      "stateMutability": "nonpayable",
      "type": "function"
    },
    {
      "inputs": [
        {
          "internalType": "address",
          "name": "sender",
          "type": "address"
        },
        {
          "internalType": "address",
          "name": "recipient",
          "type": "address"
        },
        {
          "internalType": "uint256",
          "name": "amount",
          "type": "uint256"
        }
      ],
      "name": "transferFrom",
      "outputs": [
        {
          "internalType": "bool",
          "name": "",
          "type": "bool"
        }
      ],
      "stateMutability": "nonpayable",
      "type": "function"
    }
  ],
  "bytecode": "0x60806040523480156200001157600080fd5b506040518060400160405280600981526020017f54656c6c657a44414f00000000000000000000000000000000000000000000008152506040518060400160405280600381526020017f545a4400000000000000000000000000000000000000000000000000000000008152508160039080519060200190620000969291906200031e565b508060049080519060200190620000af9291906200031e565b505050620000e77f97667070c54ef182b0f5858b034beac1b6f3089aa2d3188bb1e8929f4fa9b9296000801b6200011f60201b60201c565b620001197f97667070c54ef182b0f5858b034beac1b6f3089aa2d3188bb1e8929f4fa9b929336200018360201b60201c565b62000433565b600062000132836200019960201b60201c565b90508160056000858152602001908152602001600020600101819055508181847fbd79b86ffe0ab8e8776151514217cd7cacd52c909f66475c3af44e129f0b00ff60405160405180910390a4505050565b620001958282620001b960201b60201c565b5050565b600060056000838152602001908152602001600020600101549050919050565b620001cb8282620002ab60201b60201c565b620002a75760016005600084815260200190815260200160002060000160008373ffffffffffffffffffffffffffffffffffffffff1673ffffffffffffffffffffffffffffffffffffffff16815260200190815260200160002060006101000a81548160ff0219169083151502179055506200024c6200031660201b60201c565b73ffffffffffffffffffffffffffffffffffffffff168173ffffffffffffffffffffffffffffffffffffffff16837f2f8788117e7eff1d82e926ec794901d17c78024a50270940304540a733656f0d60405160405180910390a45b5050565b60006005600084815260200190815260200160002060000160008373ffffffffffffffffffffffffffffffffffffffff1673ffffffffffffffffffffffffffffffffffffffff16815260200190815260200160002060009054906101000a900460ff16905092915050565b600033905090565b8280546200032c90620003fd565b90600052602060002090601f0160209004810192826200035057600085556200039c565b82601f106200036b57805160ff19168380011785556200039c565b828001600101855582156200039c579182015b828111156200039b5782518255916020019190600101906200037e565b5b509050620003ab9190620003af565b5090565b5b80821115620003ca576000816000905550600101620003b0565b5090565b7f4e487b7100000000000000000000000000000000000000000000000000000000600052602260045260246000fd5b600060028204905060018216806200041657607f821691505b602082108114156200042d576200042c620003ce565b5b50919050565b612be680620004436000396000f3fe608060405234801561001057600080fd5b50600436106101cf5760003560e01c806355d0a1d011610104578063a217fddf116100a2578063d547741f11610071578063d547741f14610556578063db1a4b2014610572578063dd62ed3e1461058e578063f5b541a6146105be576101cf565b8063a217fddf146104ba578063a457c2d7146104d8578063a9059cbb14610508578063c2ade30614610538576101cf565b80637b56c2b2116100de5780637b56c2b21461043257806391d148541461044e5780639358928b1461047e57806395d89b411461049c576101cf565b806355d0a1d0146103c857806370a08231146103e657806379cc679014610416576101cf565b80632f2ff15d11610171578063395093511161014b57806339509351146103425780633e27ec9b1461037257806340c10f191461039057806342966c68146103ac576101cf565b80632f2ff15d146102ec578063313ce5671461030857806336568abe14610326576101cf565b806318160ddd116101ad57806318160ddd1461025257806321670f221461027057806323b872dd1461028c578063248a9ca3146102bc576101cf565b806301ffc9a7146101d457806306fdde0314610204578063095ea7b314610222575b600080fd5b6101ee60048036038101906101e99190611d28565b6105dc565b6040516101fb9190611d70565b60405180910390f35b61020c610656565b6040516102199190611e24565b60405180910390f35b61023c60048036038101906102379190611eda565b6106e8565b6040516102499190611d70565b60405180910390f35b61025a610706565b6040516102679190611f29565b60405180910390f35b61028a60048036038101906102859190611eda565b610710565b005b6102a660048036038101906102a19190611f44565b61078a565b6040516102b39190611d70565b60405180910390f35b6102d660048036038101906102d19190611fcd565b610882565b6040516102e39190612009565b60405180910390f35b61030660048036038101906103019190612024565b6108a2565b005b6103106108cb565b60405161031d9190612080565b60405180910390f35b610340600480360381019061033b9190612024565b6108d4565b005b61035c60048036038101906103579190611eda565b610957565b6040516103699190611d70565b60405180910390f35b61037a610a03565b6040516103879190612009565b60405180910390f35b6103aa60048036038101906103a59190611eda565b610a27565b005b6103c660048036038101906103c1919061209b565b610aa1565b005b6103d0610ab5565b6040516103dd9190611f29565b60405180910390f35b61040060048036038101906103fb91906120c8565b610afc565b60405161040d9190611f29565b60405180910390f35b610430600480360381019061042b9190611eda565b610b44565b005b61044c60048036038101906104479190611eda565b610bbf565b005b61046860048036038101906104639190612024565b610bcd565b6040516104759190611d70565b60405180910390f35b610486610c38565b6040516104939190611f29565b60405180910390f35b6104a4610c42565b6040516104b19190611e24565b60405180910390f35b6104c2610cd4565b6040516104cf9190612009565b60405180910390f35b6104f260048036038101906104ed9190611eda565b610cdb565b6040516104ff9190611d70565b60405180910390f35b610522600480360381019061051d9190611eda565b610dc6565b60405161052f9190611d70565b60405180910390f35b610540610de4565b60405161054d9190612104565b60405180910390f35b610570600480360381019061056b9190612024565b610e0e565b005b61058c600480360381019061058791906120c8565b610e37565b005b6105a860048036038101906105a3919061211f565b610efa565b6040516105b59190611f29565b60405180910390f35b6105c6610f81565b6040516105d39190612009565b60405180910390f35b60007f7965db0b000000000000000000000000000000000000000000000000000000007bffffffffffffffffffffffffffffffffffffffffffffffffffffffff1916827bffffffffffffffffffffffffffffffffffffffffffffffffffffffff1916148061064f575061064e82610fa5565b5b9050919050565b6060600380546106659061218e565b80601f01602080910402602001604051908101604052809291908181526020018280546106919061218e565b80156106de5780601f106106b3576101008083540402835291602001916106de565b820191906000526020600020905b8154815290600101906020018083116106c157829003601f168201915b5050505050905090565b60006106fc6106f561100f565b8484611017565b6001905092915050565b6000600254905090565b7f97667070c54ef182b0f5858b034beac1b6f3089aa2d3188bb1e8929f4fa9b9296107428161073d61100f565b6111e2565b61074c838361127f565b7f619caafabdd75649b302ba8419e48cccf64f37f1983ac4727cfb38b57703ffc9838360405161077d9291906121c0565b60405180910390a1505050565b60006107978484846112fc565b6000600160008673ffffffffffffffffffffffffffffffffffffffff1673ffffffffffffffffffffffffffffffffffffffff16815260200190815260200160002060006107e261100f565b73ffffffffffffffffffffffffffffffffffffffff1673ffffffffffffffffffffffffffffffffffffffff16815260200190815260200160002054905082811015610862576040517f08c379a00000000000000000000000000000000000000000000000000000000081526004016108599061225b565b60405180910390fd5b6108768561086e61100f565b858403611017565b60019150509392505050565b600060056000838152602001908152602001600020600101549050919050565b6108ab82610882565b6108bc816108b761100f565b6111e2565b6108c6838361157d565b505050565b60006012905090565b6108dc61100f565b73ffffffffffffffffffffffffffffffffffffffff168173ffffffffffffffffffffffffffffffffffffffff1614610949576040517f08c379a0000000000000000000000000000000000000000000000000000000008152600401610940906122ed565b60405180910390fd5b610953828261165e565b5050565b60006109f961096461100f565b84846001600061097261100f565b73ffffffffffffffffffffffffffffffffffffffff1673ffffffffffffffffffffffffffffffffffffffff16815260200190815260200160002060008873ffffffffffffffffffffffffffffffffffffffff1673ffffffffffffffffffffffffffffffffffffffff168152602001908152602001600020546109f4919061233c565b611017565b6001905092915050565b7f395f08be531c0d7403cba7c5ffd2b57329184452bcebcd6a48299ebbbf39db6f81565b7f395f08be531c0d7403cba7c5ffd2b57329184452bcebcd6a48299ebbbf39db6f610a5981610a5461100f565b6111e2565b610a63838361127f565b7f0f6798a560793a54c3bcfe86a93cde1e73087d944c0ea20544137d41213968858383604051610a949291906121c0565b60405180910390a1505050565b610ab2610aac61100f565b82611740565b50565b6000600860008073ffffffffffffffffffffffffffffffffffffffff1673ffffffffffffffffffffffffffffffffffffffff16815260200190815260200160002054905090565b60008060008373ffffffffffffffffffffffffffffffffffffffff1673ffffffffffffffffffffffffffffffffffffffff168152602001908152602001600020549050919050565b6000610b5783610b5261100f565b610efa565b905081811015610b9c576040517f08c379a0000000000000000000000000000000000000000000000000000000008152600401610b9390612404565b60405180910390fd5b610bb083610ba861100f565b848403611017565b610bba8383611740565b505050565b610bc98282611917565b5050565b60006005600084815260200190815260200160002060000160008373ffffffffffffffffffffffffffffffffffffffff1673ffffffffffffffffffffffffffffffffffffffff16815260200190815260200160002060009054906101000a900460ff16905092915050565b6000600654905090565b606060048054610c519061218e565b80601f0160208091040260200160405190810160405280929190818152602001828054610c7d9061218e565b8015610cca5780601f10610c9f57610100808354040283529160200191610cca565b820191906000526020600020905b815481529060010190602001808311610cad57829003601f168201915b5050505050905090565b6000801b81565b60008060016000610cea61100f565b73ffffffffffffffffffffffffffffffffffffffff1673ffffffffffffffffffffffffffffffffffffffff16815260200190815260200160002060008573ffffffffffffffffffffffffffffffffffffffff1673ffffffffffffffffffffffffffffffffffffffff16815260200190815260200160002054905082811015610da7576040517f08c379a0000000000000000000000000000000000000000000000000000000008152600401610d9e90612496565b60405180910390fd5b610dbb610db261100f565b85858403611017565b600191505092915050565b6000610dda610dd361100f565b84846112fc565b6001905092915050565b6000600760009054906101000a900473ffffffffffffffffffffffffffffffffffffffff16905090565b610e1782610882565b610e2881610e2361100f565b6111e2565b610e32838361165e565b505050565b7f97667070c54ef182b0f5858b034beac1b6f3089aa2d3188bb1e8929f4fa9b929610e6981610e6461100f565b6111e2565b81600760006101000a81548173ffffffffffffffffffffffffffffffffffffffff021916908373ffffffffffffffffffffffffffffffffffffffff160217905550610ef67f395f08be531c0d7403cba7c5ffd2b57329184452bcebcd6a48299ebbbf39db6f600760009054906101000a900473ffffffffffffffffffffffffffffffffffffffff16611a77565b5050565b6000600160008473ffffffffffffffffffffffffffffffffffffffff1673ffffffffffffffffffffffffffffffffffffffff16815260200190815260200160002060008373ffffffffffffffffffffffffffffffffffffffff1673ffffffffffffffffffffffffffffffffffffffff16815260200190815260200160002054905092915050565b7f97667070c54ef182b0f5858b034beac1b6f3089aa2d3188bb1e8929f4fa9b92981565b60007f01ffc9a7000000000000000000000000000000000000000000000000000000007bffffffffffffffffffffffffffffffffffffffffffffffffffffffff1916827bffffffffffffffffffffffffffffffffffffffffffffffffffffffff1916149050919050565b600033905090565b600073ffffffffffffffffffffffffffffffffffffffff168373ffffffffffffffffffffffffffffffffffffffff161415611087576040517f08c379a000000000000000000000000000000000000000000000000000000000815260040161107e90612528565b60405180910390fd5b600073ffffffffffffffffffffffffffffffffffffffff168273ffffffffffffffffffffffffffffffffffffffff1614156110f7576040517f08c379a00000000000000000000000000000000000000000000000000000000081526004016110ee906125ba565b60405180910390fd5b80600160008573ffffffffffffffffffffffffffffffffffffffff1673ffffffffffffffffffffffffffffffffffffffff16815260200190815260200160002060008473ffffffffffffffffffffffffffffffffffffffff1673ffffffffffffffffffffffffffffffffffffffff168152602001908152602001600020819055508173ffffffffffffffffffffffffffffffffffffffff168373ffffffffffffffffffffffffffffffffffffffff167f8c5be1e5ebec7d5bd14f71427d1e84f3dd0314c0f7b2291e5b200ac8c7c3b925836040516111d59190611f29565b60405180910390a3505050565b6111ec8282610bcd565b61127b576112118173ffffffffffffffffffffffffffffffffffffffff166014611a85565b61121f8360001c6020611a85565b6040516020016112309291906126ae565b6040516020818303038152906040526040517f08c379a00000000000000000000000000000000000000000000000000000000081526004016112729190611e24565b60405180910390fd5b5050565b6112898282611917565b80600860008473ffffffffffffffffffffffffffffffffffffffff1673ffffffffffffffffffffffffffffffffffffffff16815260200190815260200160002060008282546112d8919061233c565b9250508190555080600660008282546112f1919061233c565b925050819055505050565b600073ffffffffffffffffffffffffffffffffffffffff168373ffffffffffffffffffffffffffffffffffffffff16141561136c576040517f08c379a00000000000000000000000000000000000000000000000000000000081526004016113639061275a565b60405180910390fd5b600073ffffffffffffffffffffffffffffffffffffffff168273ffffffffffffffffffffffffffffffffffffffff1614156113dc576040517f08c379a00000000000000000000000000000000000000000000000000000000081526004016113d3906127ec565b60405180910390fd5b6113e7838383611cc1565b60008060008573ffffffffffffffffffffffffffffffffffffffff1673ffffffffffffffffffffffffffffffffffffffff1681526020019081526020016000205490508181101561146d576040517f08c379a00000000000000000000000000000000000000000000000000000000081526004016114649061287e565b60405180910390fd5b8181036000808673ffffffffffffffffffffffffffffffffffffffff1673ffffffffffffffffffffffffffffffffffffffff16815260200190815260200160002081905550816000808573ffffffffffffffffffffffffffffffffffffffff1673ffffffffffffffffffffffffffffffffffffffff1681526020019081526020016000206000828254611500919061233c565b925050819055508273ffffffffffffffffffffffffffffffffffffffff168473ffffffffffffffffffffffffffffffffffffffff167fddf252ad1be2c89b69c2b068fc378daa952ba7f163c4a11628f55a4df523b3ef846040516115649190611f29565b60405180910390a3611577848484611cc6565b50505050565b6115878282610bcd565b61165a5760016005600084815260200190815260200160002060000160008373ffffffffffffffffffffffffffffffffffffffff1673ffffffffffffffffffffffffffffffffffffffff16815260200190815260200160002060006101000a81548160ff0219169083151502179055506115ff61100f565b73ffffffffffffffffffffffffffffffffffffffff168173ffffffffffffffffffffffffffffffffffffffff16837f2f8788117e7eff1d82e926ec794901d17c78024a50270940304540a733656f0d60405160405180910390a45b5050565b6116688282610bcd565b1561173c5760006005600084815260200190815260200160002060000160008373ffffffffffffffffffffffffffffffffffffffff1673ffffffffffffffffffffffffffffffffffffffff16815260200190815260200160002060006101000a81548160ff0219169083151502179055506116e161100f565b73ffffffffffffffffffffffffffffffffffffffff168173ffffffffffffffffffffffffffffffffffffffff16837ff6391f5c32d9c69d2a47ea670b442974b53935d1edc7fd64eb21e047a839171b60405160405180910390a45b5050565b600073ffffffffffffffffffffffffffffffffffffffff168273ffffffffffffffffffffffffffffffffffffffff1614156117b0576040517f08c379a00000000000000000000000000000000000000000000000000000000081526004016117a790612910565b60405180910390fd5b6117bc82600083611cc1565b60008060008473ffffffffffffffffffffffffffffffffffffffff1673ffffffffffffffffffffffffffffffffffffffff16815260200190815260200160002054905081811015611842576040517f08c379a0000000000000000000000000000000000000000000000000000000008152600401611839906129a2565b60405180910390fd5b8181036000808573ffffffffffffffffffffffffffffffffffffffff1673ffffffffffffffffffffffffffffffffffffffff16815260200190815260200160002081905550816002600082825461189991906129c2565b92505081905550600073ffffffffffffffffffffffffffffffffffffffff168373ffffffffffffffffffffffffffffffffffffffff167fddf252ad1be2c89b69c2b068fc378daa952ba7f163c4a11628f55a4df523b3ef846040516118fe9190611f29565b60405180910390a361191283600084611cc6565b505050565b600073ffffffffffffffffffffffffffffffffffffffff168273ffffffffffffffffffffffffffffffffffffffff161415611987576040517f08c379a000000000000000000000000000000000000000000000000000000000815260040161197e90612a42565b60405180910390fd5b61199360008383611cc1565b80600260008282546119a5919061233c565b92505081905550806000808473ffffffffffffffffffffffffffffffffffffffff1673ffffffffffffffffffffffffffffffffffffffff16815260200190815260200160002060008282546119fa919061233c565b925050819055508173ffffffffffffffffffffffffffffffffffffffff16600073ffffffffffffffffffffffffffffffffffffffff167fddf252ad1be2c89b69c2b068fc378daa952ba7f163c4a11628f55a4df523b3ef83604051611a5f9190611f29565b60405180910390a3611a7360008383611cc6565b5050565b611a81828261157d565b5050565b606060006002836002611a989190612a62565b611aa2919061233c565b67ffffffffffffffff811115611abb57611aba612abc565b5b6040519080825280601f01601f191660200182016040528015611aed5781602001600182028036833780820191505090505b5090507f300000000000000000000000000000000000000000000000000000000000000081600081518110611b2557611b24612aeb565b5b60200101907effffffffffffffffffffffffffffffffffffffffffffffffffffffffffffff1916908160001a9053507f780000000000000000000000000000000000000000000000000000000000000081600181518110611b8957611b88612aeb565b5b60200101907effffffffffffffffffffffffffffffffffffffffffffffffffffffffffffff1916908160001a90535060006001846002611bc99190612a62565b611bd3919061233c565b90505b6001811115611c73577f3031323334353637383961626364656600000000000000000000000000000000600f861660108110611c1557611c14612aeb565b5b1a60f81b828281518110611c2c57611c2b612aeb565b5b60200101907effffffffffffffffffffffffffffffffffffffffffffffffffffffffffffff1916908160001a905350600485901c945080611c6c90612b1a565b9050611bd6565b5060008414611cb7576040517f08c379a0000000000000000000000000000000000000000000000000000000008152600401611cae90612b90565b60405180910390fd5b8091505092915050565b505050565b505050565b600080fd5b60007fffffffff0000000000000000000000000000000000000000000000000000000082169050919050565b611d0581611cd0565b8114611d1057600080fd5b50565b600081359050611d2281611cfc565b92915050565b600060208284031215611d3e57611d3d611ccb565b5b6000611d4c84828501611d13565b91505092915050565b60008115159050919050565b611d6a81611d55565b82525050565b6000602082019050611d856000830184611d61565b92915050565b600081519050919050565b600082825260208201905092915050565b60005b83811015611dc5578082015181840152602081019050611daa565b83811115611dd4576000848401525b50505050565b6000601f19601f8301169050919050565b6000611df682611d8b565b611e008185611d96565b9350611e10818560208601611da7565b611e1981611dda565b840191505092915050565b60006020820190508181036000830152611e3e8184611deb565b905092915050565b600073ffffffffffffffffffffffffffffffffffffffff82169050919050565b6000611e7182611e46565b9050919050565b611e8181611e66565b8114611e8c57600080fd5b50565b600081359050611e9e81611e78565b92915050565b6000819050919050565b611eb781611ea4565b8114611ec257600080fd5b50565b600081359050611ed481611eae565b92915050565b60008060408385031215611ef157611ef0611ccb565b5b6000611eff85828601611e8f565b9250506020611f1085828601611ec5565b9150509250929050565b611f2381611ea4565b82525050565b6000602082019050611f3e6000830184611f1a565b92915050565b600080600060608486031215611f5d57611f5c611ccb565b5b6000611f6b86828701611e8f565b9350506020611f7c86828701611e8f565b9250506040611f8d86828701611ec5565b9150509250925092565b6000819050919050565b611faa81611f97565b8114611fb557600080fd5b50565b600081359050611fc781611fa1565b92915050565b600060208284031215611fe357611fe2611ccb565b5b6000611ff184828501611fb8565b91505092915050565b61200381611f97565b82525050565b600060208201905061201e6000830184611ffa565b92915050565b6000806040838503121561203b5761203a611ccb565b5b600061204985828601611fb8565b925050602061205a85828601611e8f565b9150509250929050565b600060ff82169050919050565b61207a81612064565b82525050565b60006020820190506120956000830184612071565b92915050565b6000602082840312156120b1576120b0611ccb565b5b60006120bf84828501611ec5565b91505092915050565b6000602082840312156120de576120dd611ccb565b5b60006120ec84828501611e8f565b91505092915050565b6120fe81611e66565b82525050565b600060208201905061211960008301846120f5565b92915050565b6000806040838503121561213657612135611ccb565b5b600061214485828601611e8f565b925050602061215585828601611e8f565b9150509250929050565b7f4e487b7100000000000000000000000000000000000000000000000000000000600052602260045260246000fd5b600060028204905060018216806121a657607f821691505b602082108114156121ba576121b961215f565b5b50919050565b60006040820190506121d560008301856120f5565b6121e26020830184611f1a565b9392505050565b7f45524332303a207472616e7366657220616d6f756e742065786365656473206160008201527f6c6c6f77616e6365000000000000000000000000000000000000000000000000602082015250565b6000612245602883611d96565b9150612250826121e9565b604082019050919050565b6000602082019050818103600083015261227481612238565b9050919050565b7f416363657373436f6e74726f6c3a2063616e206f6e6c792072656e6f756e636560008201527f20726f6c657320666f722073656c660000000000000000000000000000000000602082015250565b60006122d7602f83611d96565b91506122e28261227b565b604082019050919050565b60006020820190508181036000830152612306816122ca565b9050919050565b7f4e487b7100000000000000000000000000000000000000000000000000000000600052601160045260246000fd5b600061234782611ea4565b915061235283611ea4565b9250827fffffffffffffffffffffffffffffffffffffffffffffffffffffffffffffffff038211156123875761238661230d565b5b828201905092915050565b7f45524332303a206275726e20616d6f756e74206578636565647320616c6c6f7760008201527f616e636500000000000000000000000000000000000000000000000000000000602082015250565b60006123ee602483611d96565b91506123f982612392565b604082019050919050565b6000602082019050818103600083015261241d816123e1565b9050919050565b7f45524332303a2064656372656173656420616c6c6f77616e63652062656c6f7760008201527f207a65726f000000000000000000000000000000000000000000000000000000602082015250565b6000612480602583611d96565b915061248b82612424565b604082019050919050565b600060208201905081810360008301526124af81612473565b9050919050565b7f45524332303a20617070726f76652066726f6d20746865207a65726f2061646460008201527f7265737300000000000000000000000000000000000000000000000000000000602082015250565b6000612512602483611d96565b915061251d826124b6565b604082019050919050565b6000602082019050818103600083015261254181612505565b9050919050565b7f45524332303a20617070726f766520746f20746865207a65726f20616464726560008201527f7373000000000000000000000000000000000000000000000000000000000000602082015250565b60006125a4602283611d96565b91506125af82612548565b604082019050919050565b600060208201905081810360008301526125d381612597565b9050919050565b600081905092915050565b7f416363657373436f6e74726f6c3a206163636f756e7420000000000000000000600082015250565b600061261b6017836125da565b9150612626826125e5565b601782019050919050565b600061263c82611d8b565b61264681856125da565b9350612656818560208601611da7565b80840191505092915050565b7f206973206d697373696e6720726f6c6520000000000000000000000000000000600082015250565b60006126986011836125da565b91506126a382612662565b601182019050919050565b60006126b98261260e565b91506126c58285612631565b91506126d08261268b565b91506126dc8284612631565b91508190509392505050565b7f45524332303a207472616e736665722066726f6d20746865207a65726f20616460008201527f6472657373000000000000000000000000000000000000000000000000000000602082015250565b6000612744602583611d96565b915061274f826126e8565b604082019050919050565b6000602082019050818103600083015261277381612737565b9050919050565b7f45524332303a207472616e7366657220746f20746865207a65726f206164647260008201527f6573730000000000000000000000000000000000000000000000000000000000602082015250565b60006127d6602383611d96565b91506127e18261277a565b604082019050919050565b60006020820190508181036000830152612805816127c9565b9050919050565b7f45524332303a207472616e7366657220616d6f756e742065786365656473206260008201527f616c616e63650000000000000000000000000000000000000000000000000000602082015250565b6000612868602683611d96565b91506128738261280c565b604082019050919050565b600060208201905081810360008301526128978161285b565b9050919050565b7f45524332303a206275726e2066726f6d20746865207a65726f2061646472657360008201527f7300000000000000000000000000000000000000000000000000000000000000602082015250565b60006128fa602183611d96565b91506129058261289e565b604082019050919050565b60006020820190508181036000830152612929816128ed565b9050919050565b7f45524332303a206275726e20616d6f756e7420657863656564732062616c616e60008201527f6365000000000000000000000000000000000000000000000000000000000000602082015250565b600061298c602283611d96565b915061299782612930565b604082019050919050565b600060208201905081810360008301526129bb8161297f565b9050919050565b60006129cd82611ea4565b91506129d883611ea4565b9250828210156129eb576129ea61230d565b5b828203905092915050565b7f45524332303a206d696e7420746f20746865207a65726f206164647265737300600082015250565b6000612a2c601f83611d96565b9150612a37826129f6565b602082019050919050565b60006020820190508181036000830152612a5b81612a1f565b9050919050565b6000612a6d82611ea4565b9150612a7883611ea4565b9250817fffffffffffffffffffffffffffffffffffffffffffffffffffffffffffffffff0483118215151615612ab157612ab061230d565b5b828202905092915050565b7f4e487b7100000000000000000000000000000000000000000000000000000000600052604160045260246000fd5b7f4e487b7100000000000000000000000000000000000000000000000000000000600052603260045260246000fd5b6000612b2582611ea4565b91506000821415612b3957612b3861230d565b5b600182039050919050565b7f537472696e67733a20686578206c656e67746820696e73756666696369656e74600082015250565b6000612b7a602083611d96565b9150612b8582612b44565b602082019050919050565b60006020820190508181036000830152612ba981612b6d565b905091905056fea2646970667358221220364cd58653fc6142a7a623071da54d9d1523b428bb7c4eb9896b65bba04ebe0264736f6c63430008090033",
  "linkReferences": {},
  "deployedLinkReferences": {}
}